{
  "_format": "hh-sol-artifact-1",
  "contractName": "NFTMarketplace",
  "sourceName": "contracts/NFTMarketplace.sol",
  "abi": [
    {
      "inputs": [],
      "stateMutability": "nonpayable",
      "type": "constructor"
    },
    {
      "anonymous": false,
      "inputs": [
        {
          "indexed": true,
          "internalType": "address",
          "name": "owner",
          "type": "address"
        },
        {
          "indexed": true,
          "internalType": "address",
          "name": "approved",
          "type": "address"
        },
        {
          "indexed": true,
          "internalType": "uint256",
          "name": "tokenId",
          "type": "uint256"
        }
      ],
      "name": "Approval",
      "type": "event"
    },
    {
      "anonymous": false,
      "inputs": [
        {
          "indexed": true,
          "internalType": "address",
          "name": "owner",
          "type": "address"
        },
        {
          "indexed": true,
          "internalType": "address",
          "name": "operator",
          "type": "address"
        },
        {
          "indexed": false,
          "internalType": "bool",
          "name": "approved",
          "type": "bool"
        }
      ],
      "name": "ApprovalForAll",
      "type": "event"
    },
    {
      "anonymous": false,
      "inputs": [
        {
          "indexed": true,
          "internalType": "uint256",
          "name": "tokenId",
          "type": "uint256"
        },
        {
          "indexed": false,
          "internalType": "address",
          "name": "seller",
          "type": "address"
        },
        {
          "indexed": false,
          "internalType": "address",
          "name": "owner",
          "type": "address"
        },
        {
          "indexed": false,
          "internalType": "uint256",
          "name": "price",
          "type": "uint256"
        },
        {
          "indexed": false,
          "internalType": "bool",
          "name": "sold",
          "type": "bool"
        }
      ],
      "name": "MarketItemCreated",
      "type": "event"
    },
    {
      "anonymous": false,
      "inputs": [
        {
          "indexed": true,
          "internalType": "address",
          "name": "from",
          "type": "address"
        },
        {
          "indexed": true,
          "internalType": "address",
          "name": "to",
          "type": "address"
        },
        {
          "indexed": true,
          "internalType": "uint256",
          "name": "tokenId",
          "type": "uint256"
        }
      ],
      "name": "Transfer",
      "type": "event"
    },
    {
      "inputs": [
        {
          "internalType": "address",
          "name": "to",
          "type": "address"
        },
        {
          "internalType": "uint256",
          "name": "tokenId",
          "type": "uint256"
        }
      ],
      "name": "approve",
      "outputs": [],
      "stateMutability": "nonpayable",
      "type": "function"
    },
    {
      "inputs": [
        {
          "internalType": "address",
          "name": "owner",
          "type": "address"
        }
      ],
      "name": "balanceOf",
      "outputs": [
        {
          "internalType": "uint256",
          "name": "",
          "type": "uint256"
        }
      ],
      "stateMutability": "view",
      "type": "function"
    },
    {
      "inputs": [
        {
          "internalType": "uint256",
          "name": "tokenId",
          "type": "uint256"
        }
      ],
      "name": "createMarketSale",
      "outputs": [],
      "stateMutability": "payable",
      "type": "function"
    },
    {
      "inputs": [
        {
          "internalType": "string",
          "name": "_profileURL",
          "type": "string"
        },
        {
          "internalType": "uint256",
          "name": "_profileID",
          "type": "uint256"
        }
      ],
      "name": "createProfile",
      "outputs": [],
      "stateMutability": "payable",
      "type": "function"
    },
    {
      "inputs": [
        {
          "internalType": "string",
          "name": "tokenURI",
          "type": "string"
        },
        {
          "internalType": "uint256",
          "name": "price",
          "type": "uint256"
        }
      ],
      "name": "createToken",
      "outputs": [
        {
          "internalType": "uint256",
          "name": "",
          "type": "uint256"
        }
      ],
      "stateMutability": "payable",
      "type": "function"
    },
    {
      "inputs": [
        {
          "internalType": "address",
          "name": "_devWallReplace",
          "type": "address"
        }
      ],
      "name": "devWalReplace",
      "outputs": [],
      "stateMutability": "nonpayable",
      "type": "function"
    },
    {
      "inputs": [],
      "name": "fetchItemsListed",
      "outputs": [
        {
          "components": [
            {
              "internalType": "uint256",
              "name": "tokenId",
              "type": "uint256"
            },
            {
              "internalType": "address payable",
              "name": "seller",
              "type": "address"
            },
            {
              "internalType": "address payable",
              "name": "owner",
              "type": "address"
            },
            {
              "internalType": "uint256",
              "name": "price",
              "type": "uint256"
            },
            {
              "internalType": "bool",
              "name": "sold",
              "type": "bool"
            }
          ],
          "internalType": "struct NFTMarketplace.MarketItem[]",
          "name": "",
          "type": "tuple[]"
        }
      ],
      "stateMutability": "view",
      "type": "function"
    },
    {
      "inputs": [],
      "name": "fetchMarketItems",
      "outputs": [
        {
          "components": [
            {
              "internalType": "uint256",
              "name": "tokenId",
              "type": "uint256"
            },
            {
              "internalType": "address payable",
              "name": "seller",
              "type": "address"
            },
            {
              "internalType": "address payable",
              "name": "owner",
              "type": "address"
            },
            {
              "internalType": "uint256",
              "name": "price",
              "type": "uint256"
            },
            {
              "internalType": "bool",
              "name": "sold",
              "type": "bool"
            }
          ],
          "internalType": "struct NFTMarketplace.MarketItem[]",
          "name": "",
          "type": "tuple[]"
        }
      ],
      "stateMutability": "view",
      "type": "function"
    },
    {
      "inputs": [],
      "name": "fetchMyNFTs",
      "outputs": [
        {
          "components": [
            {
              "internalType": "uint256",
              "name": "tokenId",
              "type": "uint256"
            },
            {
              "internalType": "address payable",
              "name": "seller",
              "type": "address"
            },
            {
              "internalType": "address payable",
              "name": "owner",
              "type": "address"
            },
            {
              "internalType": "uint256",
              "name": "price",
              "type": "uint256"
            },
            {
              "internalType": "bool",
              "name": "sold",
              "type": "bool"
            }
          ],
          "internalType": "struct NFTMarketplace.MarketItem[]",
          "name": "",
          "type": "tuple[]"
        }
      ],
      "stateMutability": "view",
      "type": "function"
    },
    {
      "inputs": [],
      "name": "fetchUserProfile",
      "outputs": [
        {
          "components": [
            {
              "internalType": "string",
              "name": "_profileURL",
              "type": "string"
            },
            {
              "internalType": "address",
              "name": "profileOwner",
              "type": "address"
            }
          ],
          "internalType": "struct NFTMarketplace.ProfileCration[]",
          "name": "",
          "type": "tuple[]"
        }
      ],
      "stateMutability": "view",
      "type": "function"
    },
    {
      "inputs": [
        {
          "internalType": "uint256",
          "name": "tokenId",
          "type": "uint256"
        }
      ],
      "name": "getApproved",
      "outputs": [
        {
          "internalType": "address",
          "name": "",
          "type": "address"
        }
      ],
      "stateMutability": "view",
      "type": "function"
    },
    {
      "inputs": [],
      "name": "getListingPrice",
      "outputs": [
        {
          "internalType": "uint256",
          "name": "",
          "type": "uint256"
        }
      ],
      "stateMutability": "view",
      "type": "function"
    },
    {
      "inputs": [
        {
          "internalType": "address",
          "name": "owner",
          "type": "address"
        },
        {
          "internalType": "address",
          "name": "operator",
          "type": "address"
        }
      ],
      "name": "isApprovedForAll",
      "outputs": [
        {
          "internalType": "bool",
          "name": "",
          "type": "bool"
        }
      ],
      "stateMutability": "view",
      "type": "function"
    },
    {
      "inputs": [],
      "name": "name",
      "outputs": [
        {
          "internalType": "string",
          "name": "",
          "type": "string"
        }
      ],
      "stateMutability": "view",
      "type": "function"
    },
    {
      "inputs": [
        {
          "internalType": "uint256",
          "name": "tokenId",
          "type": "uint256"
        }
      ],
      "name": "ownerOf",
      "outputs": [
        {
          "internalType": "address",
          "name": "",
          "type": "address"
        }
      ],
      "stateMutability": "view",
      "type": "function"
    },
    {
      "inputs": [
        {
          "internalType": "uint256",
          "name": "tokenId",
          "type": "uint256"
        },
        {
          "internalType": "uint256",
          "name": "price",
          "type": "uint256"
        }
      ],
      "name": "resellToken",
      "outputs": [],
      "stateMutability": "payable",
      "type": "function"
    },
    {
      "inputs": [
        {
          "internalType": "address",
          "name": "from",
          "type": "address"
        },
        {
          "internalType": "address",
          "name": "to",
          "type": "address"
        },
        {
          "internalType": "uint256",
          "name": "tokenId",
          "type": "uint256"
        }
      ],
      "name": "safeTransferFrom",
      "outputs": [],
      "stateMutability": "nonpayable",
      "type": "function"
    },
    {
      "inputs": [
        {
          "internalType": "address",
          "name": "from",
          "type": "address"
        },
        {
          "internalType": "address",
          "name": "to",
          "type": "address"
        },
        {
          "internalType": "uint256",
          "name": "tokenId",
          "type": "uint256"
        },
        {
          "internalType": "bytes",
          "name": "data",
          "type": "bytes"
        }
      ],
      "name": "safeTransferFrom",
      "outputs": [],
      "stateMutability": "nonpayable",
      "type": "function"
    },
    {
      "inputs": [
        {
          "internalType": "address",
          "name": "operator",
          "type": "address"
        },
        {
          "internalType": "bool",
          "name": "approved",
          "type": "bool"
        }
      ],
      "name": "setApprovalForAll",
      "outputs": [],
      "stateMutability": "nonpayable",
      "type": "function"
    },
    {
      "inputs": [
        {
          "internalType": "bytes4",
          "name": "interfaceId",
          "type": "bytes4"
        }
      ],
      "name": "supportsInterface",
      "outputs": [
        {
          "internalType": "bool",
          "name": "",
          "type": "bool"
        }
      ],
      "stateMutability": "view",
      "type": "function"
    },
    {
      "inputs": [],
      "name": "symbol",
      "outputs": [
        {
          "internalType": "string",
          "name": "",
          "type": "string"
        }
      ],
      "stateMutability": "view",
      "type": "function"
    },
    {
      "inputs": [
        {
          "internalType": "uint256",
          "name": "tokenId",
          "type": "uint256"
        }
      ],
      "name": "tokenURI",
      "outputs": [
        {
          "internalType": "string",
          "name": "",
          "type": "string"
        }
      ],
      "stateMutability": "view",
      "type": "function"
    },
    {
      "inputs": [
        {
          "internalType": "address",
          "name": "from",
          "type": "address"
        },
        {
          "internalType": "address",
          "name": "to",
          "type": "address"
        },
        {
          "internalType": "uint256",
          "name": "tokenId",
          "type": "uint256"
        }
      ],
      "name": "transferFrom",
      "outputs": [],
      "stateMutability": "nonpayable",
      "type": "function"
    },
    {
      "inputs": [
        {
          "internalType": "uint256",
          "name": "_listingPrice",
          "type": "uint256"
        }
      ],
      "name": "updateListingPrice",
      "outputs": [],
      "stateMutability": "payable",
      "type": "function"
    },
    {
      "inputs": [
        {
          "internalType": "uint256",
          "name": "_updateProfileCost",
          "type": "uint256"
        }
      ],
      "name": "updateProfileCost",
      "outputs": [],
      "stateMutability": "nonpayable",
      "type": "function"
    }
  ],
  "bytecode": "0x60806040526611c37937e08000600b55731a17f01cfd2eaba3c6a579d52d47ee40a9462cd0600f60006101000a81548173ffffffffffffffffffffffffffffffffffffffff021916908373ffffffffffffffffffffffffffffffffffffffff1602179055506611c37937e080006010553480156200007c57600080fd5b506040518060400160405280601081526020017f54696e795465736c6120546f6b656e73000000000000000000000000000000008152506040518060400160405280600481526020017f54494e54000000000000000000000000000000000000000000000000000000008152508160009081620000fa919062000411565b5080600190816200010c919062000411565b50505033600c60006101000a81548173ffffffffffffffffffffffffffffffffffffffff021916908373ffffffffffffffffffffffffffffffffffffffff16021790555033600a60006101000a81548173ffffffffffffffffffffffffffffffffffffffff021916908373ffffffffffffffffffffffffffffffffffffffff160217905550620004f8565b600081519050919050565b7f4e487b7100000000000000000000000000000000000000000000000000000000600052604160045260246000fd5b7f4e487b7100000000000000000000000000000000000000000000000000000000600052602260045260246000fd5b600060028204905060018216806200021957607f821691505b6020821081036200022f576200022e620001d1565b5b50919050565b60008190508160005260206000209050919050565b60006020601f8301049050919050565b600082821b905092915050565b600060088302620002997fffffffffffffffffffffffffffffffffffffffffffffffffffffffffffffffff826200025a565b620002a586836200025a565b95508019841693508086168417925050509392505050565b6000819050919050565b6000819050919050565b6000620002f2620002ec620002e684620002bd565b620002c7565b620002bd565b9050919050565b6000819050919050565b6200030e83620002d1565b620003266200031d82620002f9565b84845462000267565b825550505050565b600090565b6200033d6200032e565b6200034a81848462000303565b505050565b5b8181101562000372576200036660008262000333565b60018101905062000350565b5050565b601f821115620003c1576200038b8162000235565b62000396846200024a565b81016020851015620003a6578190505b620003be620003b5856200024a565b8301826200034f565b50505b505050565b600082821c905092915050565b6000620003e660001984600802620003c6565b1980831691505092915050565b6000620004018383620003d3565b9150826002028217905092915050565b6200041c8262000197565b67ffffffffffffffff811115620004385762000437620001a2565b5b62000444825462000200565b6200045182828562000376565b600060209050601f83116001811462000489576000841562000474578287015190505b620004808582620003f3565b865550620004f0565b601f198416620004998662000235565b60005b82811015620004c3578489015182556001820191506020850194506020810190506200049c565b86831015620004e35784890151620004df601f891682620003d3565b8355505b6001600288020188555050505b505050505050565b614a3380620005086000396000f3fe6080604052600436106101665760003560e01c80636352211e116100d1578063b6ccf4cb1161008a578063c87b56dd11610064578063c87b56dd14610504578063e219fc7514610541578063e526e09b1461055d578063e985e9c51461058857610166565b8063b6ccf4cb14610496578063b88d4fde146104bf578063be9af536146104e857610166565b80636352211e1461037c57806370a08231146103b957806372b3b620146103f657806395d89b4114610426578063a22cb46514610451578063ae677aa31461047a57610166565b8063202e374011610123578063202e37401461028f5780632148d06e146102ba57806323b872dd146102e357806342842e0e1461030c57806345f8fa80146103355780635658bee11461036057610166565b806301ffc9a71461016b57806306fdde03146101a8578063081812fc146101d3578063095ea7b3146102105780630f08efe01461023957806312e8558514610264575b600080fd5b34801561017757600080fd5b50610192600480360381019061018d9190613089565b6105c5565b60405161019f91906130d1565b60405180910390f35b3480156101b457600080fd5b506101bd6106a7565b6040516101ca919061317c565b60405180910390f35b3480156101df57600080fd5b506101fa60048036038101906101f591906131d4565b610739565b6040516102079190613242565b60405180910390f35b34801561021c57600080fd5b5061023760048036038101906102329190613289565b61077f565b005b34801561024557600080fd5b5061024e610896565b60405161025b919061341f565b60405180910390f35b34801561027057600080fd5b50610279610afe565b6040516102869190613450565b60405180910390f35b34801561029b57600080fd5b506102a4610b08565b6040516102b1919061341f565b60405180910390f35b3480156102c657600080fd5b506102e160048036038101906102dc91906131d4565b610df4565b005b3480156102ef57600080fd5b5061030a6004803603810190610305919061346b565b610e8e565b005b34801561031857600080fd5b50610333600480360381019061032e919061346b565b610eee565b005b34801561034157600080fd5b5061034a610f0e565b604051610357919061341f565b60405180910390f35b61037a600480360381019061037591906135f3565b6111fa565b005b34801561038857600080fd5b506103a3600480360381019061039e91906131d4565b611311565b6040516103b09190613242565b60405180910390f35b3480156103c557600080fd5b506103e060048036038101906103db919061364f565b6113c2565b6040516103ed9190613450565b60405180910390f35b610410600480360381019061040b91906135f3565b611479565b60405161041d9190613450565b60405180910390f35b34801561043257600080fd5b5061043b6114bb565b604051610448919061317c565b60405180910390f35b34801561045d57600080fd5b50610478600480360381019061047391906136a8565b61154d565b005b610494600480360381019061048f91906131d4565b611563565b005b3480156104a257600080fd5b506104bd60048036038101906104b8919061364f565b61168d565b005b3480156104cb57600080fd5b506104e660048036038101906104e19190613789565b611761565b005b61050260048036038101906104fd91906131d4565b6117c3565b005b34801561051057600080fd5b5061052b600480360381019061052691906131d4565b6119fb565b604051610538919061317c565b60405180910390f35b61055b6004803603810190610556919061380c565b611b0d565b005b34801561056957600080fd5b50610572611d02565b60405161057f91906139a4565b60405180910390f35b34801561059457600080fd5b506105af60048036038101906105aa91906139c6565b611ffb565b6040516105bc91906130d1565b60405180910390f35b60007f80ac58cd000000000000000000000000000000000000000000000000000000007bffffffffffffffffffffffffffffffffffffffffffffffffffffffff1916827bffffffffffffffffffffffffffffffffffffffffffffffffffffffff1916148061069057507f5b5e139f000000000000000000000000000000000000000000000000000000007bffffffffffffffffffffffffffffffffffffffffffffffffffffffff1916827bffffffffffffffffffffffffffffffffffffffffffffffffffffffff1916145b806106a0575061069f8261208f565b5b9050919050565b6060600080546106b690613a35565b80601f01602080910402602001604051908101604052809291908181526020018280546106e290613a35565b801561072f5780601f106107045761010080835404028352916020019161072f565b820191906000526020600020905b81548152906001019060200180831161071257829003601f168201915b5050505050905090565b6000610744826120f9565b6004600083815260200190815260200160002060009054906101000a900473ffffffffffffffffffffffffffffffffffffffff169050919050565b600061078a82611311565b90508073ffffffffffffffffffffffffffffffffffffffff168373ffffffffffffffffffffffffffffffffffffffff16036107fa576040517f08c379a00000000000000000000000000000000000000000000000000000000081526004016107f190613ad8565b60405180910390fd5b8073ffffffffffffffffffffffffffffffffffffffff16610819612144565b73ffffffffffffffffffffffffffffffffffffffff161480610848575061084781610842612144565b611ffb565b5b610887576040517f08c379a000000000000000000000000000000000000000000000000000000000815260040161087e90613b6a565b60405180910390fd5b610891838361214c565b505050565b606060006108a46007612205565b905060006108b26008612205565b6108bc6007612205565b6108c69190613bb9565b90506000808267ffffffffffffffff8111156108e5576108e46134c8565b5b60405190808252806020026020018201604052801561091e57816020015b61090b612f90565b8152602001906001900390816109035790505b50905060005b84811015610af3573073ffffffffffffffffffffffffffffffffffffffff16600d60006001846109549190613bed565b815260200190815260200160002060020160009054906101000a900473ffffffffffffffffffffffffffffffffffffffff1673ffffffffffffffffffffffffffffffffffffffff1603610ae05760006001826109b09190613bed565b90506000600d60008381526020019081526020016000209050806040518060a0016040529081600082015481526020016001820160009054906101000a900473ffffffffffffffffffffffffffffffffffffffff1673ffffffffffffffffffffffffffffffffffffffff1673ffffffffffffffffffffffffffffffffffffffff1681526020016002820160009054906101000a900473ffffffffffffffffffffffffffffffffffffffff1673ffffffffffffffffffffffffffffffffffffffff1673ffffffffffffffffffffffffffffffffffffffff168152602001600382015481526020016004820160009054906101000a900460ff161515151581525050848681518110610ac357610ac2613c21565b5b6020026020010181905250600185610adb9190613bed565b945050505b8080610aeb90613c50565b915050610924565b508094505050505090565b6000600b54905090565b60606000610b166007612205565b905060008060005b83811015610bbe573373ffffffffffffffffffffffffffffffffffffffff16600d6000600184610b4e9190613bed565b815260200190815260200160002060020160009054906101000a900473ffffffffffffffffffffffffffffffffffffffff1673ffffffffffffffffffffffffffffffffffffffff1603610bab57600183610ba89190613bed565b92505b8080610bb690613c50565b915050610b1e565b5060008267ffffffffffffffff811115610bdb57610bda6134c8565b5b604051908082528060200260200182016040528015610c1457816020015b610c01612f90565b815260200190600190039081610bf95790505b50905060005b84811015610de9573373ffffffffffffffffffffffffffffffffffffffff16600d6000600184610c4a9190613bed565b815260200190815260200160002060020160009054906101000a900473ffffffffffffffffffffffffffffffffffffffff1673ffffffffffffffffffffffffffffffffffffffff1603610dd6576000600182610ca69190613bed565b90506000600d60008381526020019081526020016000209050806040518060a0016040529081600082015481526020016001820160009054906101000a900473ffffffffffffffffffffffffffffffffffffffff1673ffffffffffffffffffffffffffffffffffffffff1673ffffffffffffffffffffffffffffffffffffffff1681526020016002820160009054906101000a900473ffffffffffffffffffffffffffffffffffffffff1673ffffffffffffffffffffffffffffffffffffffff1673ffffffffffffffffffffffffffffffffffffffff168152602001600382015481526020016004820160009054906101000a900460ff161515151581525050848681518110610db957610db8613c21565b5b6020026020010181905250600185610dd19190613bed565b945050505b8080610de190613c50565b915050610c1a565b508094505050505090565b600c60009054906101000a900473ffffffffffffffffffffffffffffffffffffffff1673ffffffffffffffffffffffffffffffffffffffff163373ffffffffffffffffffffffffffffffffffffffff1614610e84576040517f08c379a0000000000000000000000000000000000000000000000000000000008152600401610e7b90613d0a565b60405180910390fd5b8060108190555050565b610e9f610e99612144565b82612213565b610ede576040517f08c379a0000000000000000000000000000000000000000000000000000000008152600401610ed590613d9c565b60405180910390fd5b610ee98383836122a8565b505050565b610f0983838360405180602001604052806000815250611761565b505050565b60606000610f1c6007612205565b905060008060005b83811015610fc4573373ffffffffffffffffffffffffffffffffffffffff16600d6000600184610f549190613bed565b815260200190815260200160002060010160009054906101000a900473ffffffffffffffffffffffffffffffffffffffff1673ffffffffffffffffffffffffffffffffffffffff1603610fb157600183610fae9190613bed565b92505b8080610fbc90613c50565b915050610f24565b5060008267ffffffffffffffff811115610fe157610fe06134c8565b5b60405190808252806020026020018201604052801561101a57816020015b611007612f90565b815260200190600190039081610fff5790505b50905060005b848110156111ef573373ffffffffffffffffffffffffffffffffffffffff16600d60006001846110509190613bed565b815260200190815260200160002060010160009054906101000a900473ffffffffffffffffffffffffffffffffffffffff1673ffffffffffffffffffffffffffffffffffffffff16036111dc5760006001826110ac9190613bed565b90506000600d60008381526020019081526020016000209050806040518060a0016040529081600082015481526020016001820160009054906101000a900473ffffffffffffffffffffffffffffffffffffffff1673ffffffffffffffffffffffffffffffffffffffff1673ffffffffffffffffffffffffffffffffffffffff1681526020016002820160009054906101000a900473ffffffffffffffffffffffffffffffffffffffff1673ffffffffffffffffffffffffffffffffffffffff1673ffffffffffffffffffffffffffffffffffffffff168152602001600382015481526020016004820160009054906101000a900460ff1615151515815250508486815181106111bf576111be613c21565b5b60200260200101819052506001856111d79190613bed565b945050505b80806111e790613c50565b915050611020565b508094505050505090565b611204600961250e565b600f60009054906101000a900473ffffffffffffffffffffffffffffffffffffffff1673ffffffffffffffffffffffffffffffffffffffff166108fc6010549081150290604051600060405180830381858888f1935050505015801561126e573d6000803e3d6000fd5b5060405180604001604052808381526020013373ffffffffffffffffffffffffffffffffffffffff16815250600e600083815260200190815260200160002060008201518160000190816112c29190613f68565b5060208201518160010160006101000a81548173ffffffffffffffffffffffffffffffffffffffff021916908373ffffffffffffffffffffffffffffffffffffffff1602179055509050505050565b6000806002600084815260200190815260200160002060009054906101000a900473ffffffffffffffffffffffffffffffffffffffff169050600073ffffffffffffffffffffffffffffffffffffffff168173ffffffffffffffffffffffffffffffffffffffff16036113b9576040517f08c379a00000000000000000000000000000000000000000000000000000000081526004016113b090614086565b60405180910390fd5b80915050919050565b60008073ffffffffffffffffffffffffffffffffffffffff168273ffffffffffffffffffffffffffffffffffffffff1603611432576040517f08c379a000000000000000000000000000000000000000000000000000000000815260040161142990614118565b60405180910390fd5b600360008373ffffffffffffffffffffffffffffffffffffffff1673ffffffffffffffffffffffffffffffffffffffff168152602001908152602001600020549050919050565b6000611485600761250e565b60006114916007612205565b905061149d3382612524565b6114a781856126fd565b6114b1818461276a565b8091505092915050565b6060600180546114ca90613a35565b80601f01602080910402602001604051908101604052809291908181526020018280546114f690613a35565b80156115435780601f1061151857610100808354040283529160200191611543565b820191906000526020600020905b81548152906001019060200180831161152657829003601f168201915b5050505050905090565b61155f611558612144565b838361296d565b5050565b600c60009054906101000a900473ffffffffffffffffffffffffffffffffffffffff1673ffffffffffffffffffffffffffffffffffffffff163373ffffffffffffffffffffffffffffffffffffffff16146115f3576040517f08c379a00000000000000000000000000000000000000000000000000000000081526004016115ea90613d0a565b60405180910390fd5b3373ffffffffffffffffffffffffffffffffffffffff16600c60009054906101000a900473ffffffffffffffffffffffffffffffffffffffff1673ffffffffffffffffffffffffffffffffffffffff1614611683576040517f08c379a000000000000000000000000000000000000000000000000000000000815260040161167a906141aa565b60405180910390fd5b80600b8190555050565b600c60009054906101000a900473ffffffffffffffffffffffffffffffffffffffff1673ffffffffffffffffffffffffffffffffffffffff163373ffffffffffffffffffffffffffffffffffffffff161461171d576040517f08c379a000000000000000000000000000000000000000000000000000000000815260040161171490613d0a565b60405180910390fd5b80600f60006101000a81548173ffffffffffffffffffffffffffffffffffffffff021916908373ffffffffffffffffffffffffffffffffffffffff16021790555050565b61177261176c612144565b83612213565b6117b1576040517f08c379a00000000000000000000000000000000000000000000000000000000081526004016117a890613d9c565b60405180910390fd5b6117bd84848484612ad9565b50505050565b6000600d6000838152602001908152602001600020600301549050803414611820576040517f08c379a00000000000000000000000000000000000000000000000000000000081526004016118179061423c565b60405180910390fd5b33600d600084815260200190815260200160002060020160006101000a81548173ffffffffffffffffffffffffffffffffffffffff021916908373ffffffffffffffffffffffffffffffffffffffff1602179055506001600d600084815260200190815260200160002060040160006101000a81548160ff0219169083151502179055506000600d600084815260200190815260200160002060010160006101000a81548173ffffffffffffffffffffffffffffffffffffffff021916908373ffffffffffffffffffffffffffffffffffffffff160217905550611904600861250e565b61190f3033846122a8565b600a60009054906101000a900473ffffffffffffffffffffffffffffffffffffffff1673ffffffffffffffffffffffffffffffffffffffff166108fc600b549081150290604051600060405180830381858888f19350505050158015611979573d6000803e3d6000fd5b50600d600083815260200190815260200160002060010160009054906101000a900473ffffffffffffffffffffffffffffffffffffffff1673ffffffffffffffffffffffffffffffffffffffff166108fc349081150290604051600060405180830381858888f193505050501580156119f6573d6000803e3d6000fd5b505050565b6060611a06826120f9565b6000600660008481526020019081526020016000208054611a2690613a35565b80601f0160208091040260200160405190810160405280929190818152602001828054611a5290613a35565b8015611a9f5780601f10611a7457610100808354040283529160200191611a9f565b820191906000526020600020905b815481529060010190602001808311611a8257829003601f168201915b505050505090506000611ab0612b35565b90506000815103611ac5578192505050611b08565b600082511115611afa578082604051602001611ae2929190614298565b60405160208183030381529060405292505050611b08565b611b0384612b4c565b925050505b919050565b3373ffffffffffffffffffffffffffffffffffffffff16600d600084815260200190815260200160002060020160009054906101000a900473ffffffffffffffffffffffffffffffffffffffff1673ffffffffffffffffffffffffffffffffffffffff1614611bb1576040517f08c379a0000000000000000000000000000000000000000000000000000000008152600401611ba89061432e565b60405180910390fd5b600b543414611bf5576040517f08c379a0000000000000000000000000000000000000000000000000000000008152600401611bec906143c0565b60405180910390fd5b6000600d600084815260200190815260200160002060040160006101000a81548160ff02191690831515021790555080600d60008481526020019081526020016000206003018190555033600d600084815260200190815260200160002060010160006101000a81548173ffffffffffffffffffffffffffffffffffffffff021916908373ffffffffffffffffffffffffffffffffffffffff16021790555030600d600084815260200190815260200160002060020160006101000a81548173ffffffffffffffffffffffffffffffffffffffff021916908373ffffffffffffffffffffffffffffffffffffffff160217905550611cf36008612bb4565b611cfe3330846122a8565b5050565b60606000611d106009612205565b905060008060005b83811015611db8573373ffffffffffffffffffffffffffffffffffffffff16600e6000600184611d489190613bed565b815260200190815260200160002060010160009054906101000a900473ffffffffffffffffffffffffffffffffffffffff1673ffffffffffffffffffffffffffffffffffffffff1603611da557600183611da29190613bed565b92505b8080611db090613c50565b915050611d18565b5060008267ffffffffffffffff811115611dd557611dd46134c8565b5b604051908082528060200260200182016040528015611e0e57816020015b611dfb612fed565b815260200190600190039081611df35790505b50905060005b84811015611ff0573373ffffffffffffffffffffffffffffffffffffffff16600e6000600184611e449190613bed565b815260200190815260200160002060010160009054906101000a900473ffffffffffffffffffffffffffffffffffffffff1673ffffffffffffffffffffffffffffffffffffffff1603611fdd576000600182611ea09190613bed565b90506000600e6000838152602001908152602001600020905080604051806040016040529081600082018054611ed590613a35565b80601f0160208091040260200160405190810160405280929190818152602001828054611f0190613a35565b8015611f4e5780601f10611f2357610100808354040283529160200191611f4e565b820191906000526020600020905b815481529060010190602001808311611f3157829003601f168201915b505050505081526020016001820160009054906101000a900473ffffffffffffffffffffffffffffffffffffffff1673ffffffffffffffffffffffffffffffffffffffff1673ffffffffffffffffffffffffffffffffffffffff1681525050848681518110611fc057611fbf613c21565b5b6020026020010181905250600185611fd89190613bed565b945050505b8080611fe890613c50565b915050611e14565b508094505050505090565b6000600560008473ffffffffffffffffffffffffffffffffffffffff1673ffffffffffffffffffffffffffffffffffffffff16815260200190815260200160002060008373ffffffffffffffffffffffffffffffffffffffff1673ffffffffffffffffffffffffffffffffffffffff16815260200190815260200160002060009054906101000a900460ff16905092915050565b60007f01ffc9a7000000000000000000000000000000000000000000000000000000007bffffffffffffffffffffffffffffffffffffffffffffffffffffffff1916827bffffffffffffffffffffffffffffffffffffffffffffffffffffffff1916149050919050565b61210281612c10565b612141576040517f08c379a000000000000000000000000000000000000000000000000000000000815260040161213890614086565b60405180910390fd5b50565b600033905090565b816004600083815260200190815260200160002060006101000a81548173ffffffffffffffffffffffffffffffffffffffff021916908373ffffffffffffffffffffffffffffffffffffffff160217905550808273ffffffffffffffffffffffffffffffffffffffff166121bf83611311565b73ffffffffffffffffffffffffffffffffffffffff167f8c5be1e5ebec7d5bd14f71427d1e84f3dd0314c0f7b2291e5b200ac8c7c3b92560405160405180910390a45050565b600081600001549050919050565b60008061221f83611311565b90508073ffffffffffffffffffffffffffffffffffffffff168473ffffffffffffffffffffffffffffffffffffffff16148061226157506122608185611ffb565b5b8061229f57508373ffffffffffffffffffffffffffffffffffffffff1661228784610739565b73ffffffffffffffffffffffffffffffffffffffff16145b91505092915050565b8273ffffffffffffffffffffffffffffffffffffffff166122c882611311565b73ffffffffffffffffffffffffffffffffffffffff161461231e576040517f08c379a000000000000000000000000000000000000000000000000000000000815260040161231590614452565b60405180910390fd5b600073ffffffffffffffffffffffffffffffffffffffff168273ffffffffffffffffffffffffffffffffffffffff160361238d576040517f08c379a0000000000000000000000000000000000000000000000000000000008152600401612384906144e4565b60405180910390fd5b612398838383612c7c565b6123a360008261214c565b6001600360008573ffffffffffffffffffffffffffffffffffffffff1673ffffffffffffffffffffffffffffffffffffffff16815260200190815260200160002060008282546123f39190613bb9565b925050819055506001600360008473ffffffffffffffffffffffffffffffffffffffff1673ffffffffffffffffffffffffffffffffffffffff168152602001908152602001600020600082825461244a9190613bed565b92505081905550816002600083815260200190815260200160002060006101000a81548173ffffffffffffffffffffffffffffffffffffffff021916908373ffffffffffffffffffffffffffffffffffffffff160217905550808273ffffffffffffffffffffffffffffffffffffffff168473ffffffffffffffffffffffffffffffffffffffff167fddf252ad1be2c89b69c2b068fc378daa952ba7f163c4a11628f55a4df523b3ef60405160405180910390a4612509838383612c81565b505050565b6001816000016000828254019250508190555050565b600073ffffffffffffffffffffffffffffffffffffffff168273ffffffffffffffffffffffffffffffffffffffff1603612593576040517f08c379a000000000000000000000000000000000000000000000000000000000815260040161258a90614550565b60405180910390fd5b61259c81612c10565b156125dc576040517f08c379a00000000000000000000000000000000000000000000000000000000081526004016125d3906145bc565b60405180910390fd5b6125e860008383612c7c565b6001600360008473ffffffffffffffffffffffffffffffffffffffff1673ffffffffffffffffffffffffffffffffffffffff16815260200190815260200160002060008282546126389190613bed565b92505081905550816002600083815260200190815260200160002060006101000a81548173ffffffffffffffffffffffffffffffffffffffff021916908373ffffffffffffffffffffffffffffffffffffffff160217905550808273ffffffffffffffffffffffffffffffffffffffff16600073ffffffffffffffffffffffffffffffffffffffff167fddf252ad1be2c89b69c2b068fc378daa952ba7f163c4a11628f55a4df523b3ef60405160405180910390a46126f960008383612c81565b5050565b61270682612c10565b612745576040517f08c379a000000000000000000000000000000000000000000000000000000000815260040161273c9061464e565b60405180910390fd5b806006600084815260200190815260200160002090816127659190613f68565b505050565b600081116127ad576040517f08c379a00000000000000000000000000000000000000000000000000000000081526004016127a4906146ba565b60405180910390fd5b600b5434146127f1576040517f08c379a00000000000000000000000000000000000000000000000000000000081526004016127e8906143c0565b60405180910390fd5b6040518060a001604052808381526020013373ffffffffffffffffffffffffffffffffffffffff1681526020013073ffffffffffffffffffffffffffffffffffffffff16815260200182815260200160001515815250600d60008481526020019081526020016000206000820151816000015560208201518160010160006101000a81548173ffffffffffffffffffffffffffffffffffffffff021916908373ffffffffffffffffffffffffffffffffffffffff16021790555060408201518160020160006101000a81548173ffffffffffffffffffffffffffffffffffffffff021916908373ffffffffffffffffffffffffffffffffffffffff1602179055506060820151816003015560808201518160040160006101000a81548160ff02191690831515021790555090505061292a3330846122a8565b817fb640004f1d14576d0c209e240cad0410e0d8c0c33a09375861fbadae2588a98d333084600060405161296194939291906146da565b60405180910390a25050565b8173ffffffffffffffffffffffffffffffffffffffff168373ffffffffffffffffffffffffffffffffffffffff16036129db576040517f08c379a00000000000000000000000000000000000000000000000000000000081526004016129d29061476b565b60405180910390fd5b80600560008573ffffffffffffffffffffffffffffffffffffffff1673ffffffffffffffffffffffffffffffffffffffff16815260200190815260200160002060008473ffffffffffffffffffffffffffffffffffffffff1673ffffffffffffffffffffffffffffffffffffffff16815260200190815260200160002060006101000a81548160ff0219169083151502179055508173ffffffffffffffffffffffffffffffffffffffff168373ffffffffffffffffffffffffffffffffffffffff167f17307eab39ab6107e8899845ad3d59bd9653f200f220920489ca2b5937696c3183604051612acc91906130d1565b60405180910390a3505050565b612ae48484846122a8565b612af084848484612c86565b612b2f576040517f08c379a0000000000000000000000000000000000000000000000000000000008152600401612b26906147fd565b60405180910390fd5b50505050565b606060405180602001604052806000815250905090565b6060612b57826120f9565b6000612b61612b35565b90506000815111612b815760405180602001604052806000815250612bac565b80612b8b84612e0d565b604051602001612b9c929190614298565b6040516020818303038152906040525b915050919050565b60008160000154905060008111612c00576040517f08c379a0000000000000000000000000000000000000000000000000000000008152600401612bf790614869565b60405180910390fd5b6001810382600001819055505050565b60008073ffffffffffffffffffffffffffffffffffffffff166002600084815260200190815260200160002060009054906101000a900473ffffffffffffffffffffffffffffffffffffffff1673ffffffffffffffffffffffffffffffffffffffff1614159050919050565b505050565b505050565b6000612ca78473ffffffffffffffffffffffffffffffffffffffff16612f6d565b15612e00578373ffffffffffffffffffffffffffffffffffffffff1663150b7a02612cd0612144565b8786866040518563ffffffff1660e01b8152600401612cf294939291906148de565b6020604051808303816000875af1925050508015612d2e57506040513d601f19601f82011682018060405250810190612d2b919061493f565b60015b612db0573d8060008114612d5e576040519150601f19603f3d011682016040523d82523d6000602084013e612d63565b606091505b506000815103612da8576040517f08c379a0000000000000000000000000000000000000000000000000000000008152600401612d9f906147fd565b60405180910390fd5b805181602001fd5b63150b7a0260e01b7bffffffffffffffffffffffffffffffffffffffffffffffffffffffff1916817bffffffffffffffffffffffffffffffffffffffffffffffffffffffff191614915050612e05565b600190505b949350505050565b606060008203612e54576040518060400160405280600181526020017f30000000000000000000000000000000000000000000000000000000000000008152509050612f68565b600082905060005b60008214612e86578080612e6f90613c50565b915050600a82612e7f919061499b565b9150612e5c565b60008167ffffffffffffffff811115612ea257612ea16134c8565b5b6040519080825280601f01601f191660200182016040528015612ed45781602001600182028036833780820191505090505b5090505b60008514612f6157600182612eed9190613bb9565b9150600a85612efc91906149cc565b6030612f089190613bed565b60f81b818381518110612f1e57612f1d613c21565b5b60200101907effffffffffffffffffffffffffffffffffffffffffffffffffffffffffffff1916908160001a905350600a85612f5a919061499b565b9450612ed8565b8093505050505b919050565b6000808273ffffffffffffffffffffffffffffffffffffffff163b119050919050565b6040518060a0016040528060008152602001600073ffffffffffffffffffffffffffffffffffffffff168152602001600073ffffffffffffffffffffffffffffffffffffffff168152602001600081526020016000151581525090565b604051806040016040528060608152602001600073ffffffffffffffffffffffffffffffffffffffff1681525090565b6000604051905090565b600080fd5b600080fd5b60007fffffffff0000000000000000000000000000000000000000000000000000000082169050919050565b61306681613031565b811461307157600080fd5b50565b6000813590506130838161305d565b92915050565b60006020828403121561309f5761309e613027565b5b60006130ad84828501613074565b91505092915050565b60008115159050919050565b6130cb816130b6565b82525050565b60006020820190506130e660008301846130c2565b92915050565b600081519050919050565b600082825260208201905092915050565b60005b8381101561312657808201518184015260208101905061310b565b60008484015250505050565b6000601f19601f8301169050919050565b600061314e826130ec565b61315881856130f7565b9350613168818560208601613108565b61317181613132565b840191505092915050565b600060208201905081810360008301526131968184613143565b905092915050565b6000819050919050565b6131b18161319e565b81146131bc57600080fd5b50565b6000813590506131ce816131a8565b92915050565b6000602082840312156131ea576131e9613027565b5b60006131f8848285016131bf565b91505092915050565b600073ffffffffffffffffffffffffffffffffffffffff82169050919050565b600061322c82613201565b9050919050565b61323c81613221565b82525050565b60006020820190506132576000830184613233565b92915050565b61326681613221565b811461327157600080fd5b50565b6000813590506132838161325d565b92915050565b600080604083850312156132a05761329f613027565b5b60006132ae85828601613274565b92505060206132bf858286016131bf565b9150509250929050565b600081519050919050565b600082825260208201905092915050565b6000819050602082019050919050565b6132fe8161319e565b82525050565b600061330f82613201565b9050919050565b61331f81613304565b82525050565b61332e816130b6565b82525050565b60a08201600082015161334a60008501826132f5565b50602082015161335d6020850182613316565b5060408201516133706040850182613316565b50606082015161338360608501826132f5565b5060808201516133966080850182613325565b50505050565b60006133a88383613334565b60a08301905092915050565b6000602082019050919050565b60006133cc826132c9565b6133d681856132d4565b93506133e1836132e5565b8060005b838110156134125781516133f9888261339c565b9750613404836133b4565b9250506001810190506133e5565b5085935050505092915050565b6000602082019050818103600083015261343981846133c1565b905092915050565b61344a8161319e565b82525050565b60006020820190506134656000830184613441565b92915050565b60008060006060848603121561348457613483613027565b5b600061349286828701613274565b93505060206134a386828701613274565b92505060406134b4868287016131bf565b9150509250925092565b600080fd5b600080fd5b7f4e487b7100000000000000000000000000000000000000000000000000000000600052604160045260246000fd5b61350082613132565b810181811067ffffffffffffffff8211171561351f5761351e6134c8565b5b80604052505050565b600061353261301d565b905061353e82826134f7565b919050565b600067ffffffffffffffff82111561355e5761355d6134c8565b5b61356782613132565b9050602081019050919050565b82818337600083830152505050565b600061359661359184613543565b613528565b9050828152602081018484840111156135b2576135b16134c3565b5b6135bd848285613574565b509392505050565b600082601f8301126135da576135d96134be565b5b81356135ea848260208601613583565b91505092915050565b6000806040838503121561360a57613609613027565b5b600083013567ffffffffffffffff8111156136285761362761302c565b5b613634858286016135c5565b9250506020613645858286016131bf565b9150509250929050565b60006020828403121561366557613664613027565b5b600061367384828501613274565b91505092915050565b613685816130b6565b811461369057600080fd5b50565b6000813590506136a28161367c565b92915050565b600080604083850312156136bf576136be613027565b5b60006136cd85828601613274565b92505060206136de85828601613693565b9150509250929050565b600067ffffffffffffffff821115613703576137026134c8565b5b61370c82613132565b9050602081019050919050565b600061372c613727846136e8565b613528565b905082815260208101848484011115613748576137476134c3565b5b613753848285613574565b509392505050565b600082601f8301126137705761376f6134be565b5b8135613780848260208601613719565b91505092915050565b600080600080608085870312156137a3576137a2613027565b5b60006137b187828801613274565b94505060206137c287828801613274565b93505060406137d3878288016131bf565b925050606085013567ffffffffffffffff8111156137f4576137f361302c565b5b6138008782880161375b565b91505092959194509250565b6000806040838503121561382357613822613027565b5b6000613831858286016131bf565b9250506020613842858286016131bf565b9150509250929050565b600081519050919050565b600082825260208201905092915050565b6000819050602082019050919050565b600082825260208201905092915050565b6000613894826130ec565b61389e8185613878565b93506138ae818560208601613108565b6138b781613132565b840191505092915050565b6138cb81613221565b82525050565b600060408301600083015184820360008601526138ee8282613889565b915050602083015161390360208601826138c2565b508091505092915050565b600061391a83836138d1565b905092915050565b6000602082019050919050565b600061393a8261384c565b6139448185613857565b93508360208202850161395685613868565b8060005b858110156139925784840389528151613973858261390e565b945061397e83613922565b925060208a0199505060018101905061395a565b50829750879550505050505092915050565b600060208201905081810360008301526139be818461392f565b905092915050565b600080604083850312156139dd576139dc613027565b5b60006139eb85828601613274565b92505060206139fc85828601613274565b9150509250929050565b7f4e487b7100000000000000000000000000000000000000000000000000000000600052602260045260246000fd5b60006002820490506001821680613a4d57607f821691505b602082108103613a6057613a5f613a06565b5b50919050565b7f4552433732313a20617070726f76616c20746f2063757272656e74206f776e6560008201527f7200000000000000000000000000000000000000000000000000000000000000602082015250565b6000613ac26021836130f7565b9150613acd82613a66565b604082019050919050565b60006020820190508181036000830152613af181613ab5565b9050919050565b7f4552433732313a20617070726f76652063616c6c6572206973206e6f7420746f60008201527f6b656e206f776e6572206e6f7220617070726f76656420666f7220616c6c0000602082015250565b6000613b54603e836130f7565b9150613b5f82613af8565b604082019050919050565b60006020820190508181036000830152613b8381613b47565b9050919050565b7f4e487b7100000000000000000000000000000000000000000000000000000000600052601160045260246000fd5b6000613bc48261319e565b9150613bcf8361319e565b9250828203905081811115613be757613be6613b8a565b5b92915050565b6000613bf88261319e565b9150613c038361319e565b9250828201905080821115613c1b57613c1a613b8a565b5b92915050565b7f4e487b7100000000000000000000000000000000000000000000000000000000600052603260045260246000fd5b6000613c5b8261319e565b91507fffffffffffffffffffffffffffffffffffffffffffffffffffffffffffffffff8203613c8d57613c8c613b8a565b5b600182019050919050565b7f6f6e6c79206f776e6572206f6620746865206d61726b6574706c61636520636160008201527f6e206368616e676520746865206c697374696e67207072696365000000000000602082015250565b6000613cf4603a836130f7565b9150613cff82613c98565b604082019050919050565b60006020820190508181036000830152613d2381613ce7565b9050919050565b7f4552433732313a2063616c6c6572206973206e6f7420746f6b656e206f776e6560008201527f72206e6f7220617070726f766564000000000000000000000000000000000000602082015250565b6000613d86602e836130f7565b9150613d9182613d2a565b604082019050919050565b60006020820190508181036000830152613db581613d79565b9050919050565b60008190508160005260206000209050919050565b60006020601f8301049050919050565b600082821b905092915050565b600060088302613e1e7fffffffffffffffffffffffffffffffffffffffffffffffffffffffffffffffff82613de1565b613e288683613de1565b95508019841693508086168417925050509392505050565b6000819050919050565b6000613e65613e60613e5b8461319e565b613e40565b61319e565b9050919050565b6000819050919050565b613e7f83613e4a565b613e93613e8b82613e6c565b848454613dee565b825550505050565b600090565b613ea8613e9b565b613eb3818484613e76565b505050565b5b81811015613ed757613ecc600082613ea0565b600181019050613eb9565b5050565b601f821115613f1c57613eed81613dbc565b613ef684613dd1565b81016020851015613f05578190505b613f19613f1185613dd1565b830182613eb8565b50505b505050565b600082821c905092915050565b6000613f3f60001984600802613f21565b1980831691505092915050565b6000613f588383613f2e565b9150826002028217905092915050565b613f71826130ec565b67ffffffffffffffff811115613f8a57613f896134c8565b5b613f948254613a35565b613f9f828285613edb565b600060209050601f831160018114613fd25760008415613fc0578287015190505b613fca8582613f4c565b865550614032565b601f198416613fe086613dbc565b60005b8281101561400857848901518255600182019150602085019450602081019050613fe3565b868310156140255784890151614021601f891682613f2e565b8355505b6001600288020188555050505b505050505050565b7f4552433732313a20696e76616c696420746f6b656e2049440000000000000000600082015250565b60006140706018836130f7565b915061407b8261403a565b602082019050919050565b6000602082019050818103600083015261409f81614063565b9050919050565b7f4552433732313a2061646472657373207a65726f206973206e6f74206120766160008201527f6c6964206f776e65720000000000000000000000000000000000000000000000602082015250565b60006141026029836130f7565b915061410d826140a6565b604082019050919050565b60006020820190508181036000830152614131816140f5565b9050919050565b7f4f6e6c79206d61726b6574706c616365206f776e65722063616e20757064617460008201527f65206c697374696e672070726963652e00000000000000000000000000000000602082015250565b60006141946030836130f7565b915061419f82614138565b604082019050919050565b600060208201905081810360008301526141c381614187565b9050919050565b7f506c65617365207375626d6974207468652061736b696e67207072696365206960008201527f6e206f7264657220746f20636f6d706c65746520746865207075726368617365602082015250565b60006142266040836130f7565b9150614231826141ca565b604082019050919050565b6000602082019050818103600083015261425581614219565b9050919050565b600081905092915050565b6000614272826130ec565b61427c818561425c565b935061428c818560208601613108565b80840191505092915050565b60006142a48285614267565b91506142b08284614267565b91508190509392505050565b7f4f6e6c79206974656d206f776e65722063616e20706572666f726d207468697360008201527f206f7065726174696f6e00000000000000000000000000000000000000000000602082015250565b6000614318602a836130f7565b9150614323826142bc565b604082019050919050565b600060208201905081810360008301526143478161430b565b9050919050565b7f5072696365206d75737420626520657175616c20746f206c697374696e67207060008201527f7269636500000000000000000000000000000000000000000000000000000000602082015250565b60006143aa6024836130f7565b91506143b58261434e565b604082019050919050565b600060208201905081810360008301526143d98161439d565b9050919050565b7f4552433732313a207472616e736665722066726f6d20696e636f72726563742060008201527f6f776e6572000000000000000000000000000000000000000000000000000000602082015250565b600061443c6025836130f7565b9150614447826143e0565b604082019050919050565b6000602082019050818103600083015261446b8161442f565b9050919050565b7f4552433732313a207472616e7366657220746f20746865207a65726f2061646460008201527f7265737300000000000000000000000000000000000000000000000000000000602082015250565b60006144ce6024836130f7565b91506144d982614472565b604082019050919050565b600060208201905081810360008301526144fd816144c1565b9050919050565b7f4552433732313a206d696e7420746f20746865207a65726f2061646472657373600082015250565b600061453a6020836130f7565b915061454582614504565b602082019050919050565b600060208201905081810360008301526145698161452d565b9050919050565b7f4552433732313a20746f6b656e20616c7265616479206d696e74656400000000600082015250565b60006145a6601c836130f7565b91506145b182614570565b602082019050919050565b600060208201905081810360008301526145d581614599565b9050919050565b7f45524337323155524953746f726167653a2055524920736574206f66206e6f6e60008201527f6578697374656e7420746f6b656e000000000000000000000000000000000000602082015250565b6000614638602e836130f7565b9150614643826145dc565b604082019050919050565b600060208201905081810360008301526146678161462b565b9050919050565b7f5072696365206d757374206265206174206c6561737420312077656900000000600082015250565b60006146a4601c836130f7565b91506146af8261466e565b602082019050919050565b600060208201905081810360008301526146d381614697565b9050919050565b60006080820190506146ef6000830187613233565b6146fc6020830186613233565b6147096040830185613441565b61471660608301846130c2565b95945050505050565b7f4552433732313a20617070726f766520746f2063616c6c657200000000000000600082015250565b60006147556019836130f7565b91506147608261471f565b602082019050919050565b6000602082019050818103600083015261478481614748565b9050919050565b7f4552433732313a207472616e7366657220746f206e6f6e20455243373231526560008201527f63656976657220696d706c656d656e7465720000000000000000000000000000602082015250565b60006147e76032836130f7565b91506147f28261478b565b604082019050919050565b60006020820190508181036000830152614816816147da565b9050919050565b7f436f756e7465723a2064656372656d656e74206f766572666c6f770000000000600082015250565b6000614853601b836130f7565b915061485e8261481d565b602082019050919050565b6000602082019050818103600083015261488281614846565b9050919050565b600081519050919050565b600082825260208201905092915050565b60006148b082614889565b6148ba8185614894565b93506148ca818560208601613108565b6148d381613132565b840191505092915050565b60006080820190506148f36000830187613233565b6149006020830186613233565b61490d6040830185613441565b818103606083015261491f81846148a5565b905095945050505050565b6000815190506149398161305d565b92915050565b60006020828403121561495557614954613027565b5b60006149638482850161492a565b91505092915050565b7f4e487b7100000000000000000000000000000000000000000000000000000000600052601260045260246000fd5b60006149a68261319e565b91506149b18361319e565b9250826149c1576149c061496c565b5b828204905092915050565b60006149d78261319e565b91506149e28361319e565b9250826149f2576149f161496c565b5b82820690509291505056fea26469706673582212202e0ad897e31e6f6a30a8e707ddc6239b4ab5c08812117f4ff0689dd7a322957b64736f6c63430008110033",
  "linkReferences": {},
  "deployedLinkReferences": {}
}